S01800006275696C642F6D6963617A2F6D61696E2E73726563E5
S11300000C9449000C9419050C9423050C942D05AB
S11300100C9437050C9441050C944B050C94640620
S11300200C9455050C9468000C9468000C948B0B8C
S11300300C94290D0C94E3040C94F9040C945F05BE
S11300400C94D2040C94BC0F0C9468000C946800BB
S11300500C9468000C9468000C9468000C9468007C
S11300600C94EE040C9468000C9468000C946800E2
S11300700C9468000C9468000C9468000C9468005C
S11300800C9468000C9468000C94680000081C1818
S1130090141011241FBECFEFD0E1DEBFCDBF11E09D
S11300A0A0E0B1E0EEEDF1E300E00BBF02C0079089
S11300B00D92A031B107D9F712E0A0E1B1E001C07F
S11300C01D92AB34B107E1F70E940C150C94EE18A5
S11300D00C9400008FB7F894992708958FBF089562
S11300E0FC0182819927582F442781819927482B25
S11300F0592BCA01892F992786958695837090700C
S11301008230910559F08330910559F0892B19F407
S113011020E030E008C02CE93FEF05C022E030E0E9
S113012002C028E030E0CA0184E0989F812D99271D
S113013011248230910559F08330910559F0892BAF
S113014019F480E090E008C08CE99FEF05C082E0DC
S113015090E002C088E090E0280F391F2A5F3F4FEB
S1130160CF01820F931F0895282F9FB7F894662319
S113017049F0E82FFF27EF52FE4F8081882311F0CA
S113018021E006C0E22FFF27EF52FE4F608320E0FC
S1130190892F99278FBF822F99270895E82F8FB72A
S11301A0F894282F332790E0FF27EF52FE4F8081E9
S11301B0861709F491E02FBF892F99270895882382
S11301C011F06E9A08956E980895882311F06F9A2D
S11301D008956F98089580E00E94DF00BA9ABB9852
S11301E0B99AB89A6C9A80E00E94E5006B986A9874
S11301F081E00E94DF00709A8DB18C7F8DB90895E3
S11302000F931F93CF93DF93182F8FB7F894C82FB2
S1130210DD270C2F61E080E00E94B400882321F0E8
S1130220CFBF85E090E024C0809108018823A1F429
S113023080911601823081F409C082E08093160116
S1130240109208010E94EB00B89AC098109305011F
S113025080E00FBF99270CC080911601882369F3B1
S11302608FB7F89499271092D1018FBF81E0F1CF15
S1130270DF91CF911F910F910895282F9FB7F89484
S1130280E82FFF27E55CFE4F80818F3F81F4E091EA
S11302904902E21771F40BC020933B0204C0FF270C
S11302A0E55CFE4F20832093490220E007C025E04F
S11302B005C080913B028F3F91F7EECF892F99279C
S11302C08FBF822F992708951F93182F81E00E94D2
S11302D0DF001FB9779BFECF8FB199271F91089537
S11302E08F929F92AF92BF92CF92DF92EF92FF9242
S11302F00F931F93CF93DF938FB7F8949927C090F0
S11303004402D09045028090960190909701C0914C
S11303107501D091760120911F0130912001EAE00E
S1130320AE2EB12CAC0EBD1E2A153B0508F45901A6
S11303308FBF7401EC0EFD1E86010C0F1D1F14C02F
S1130340C114D10419F0F801808101C080E00E9439
S113035064018114910411F0F701808321960894BB
S1130360E11CF11C0F5F1F4FC5010197C817D90786
S113037038F381E00E94E5009FB7F894C114D104DA
S113038031F0CC0EDD1EF60180818FB901C01FB89B
S1130390D0937601C0937501892F99278FBF80E090
S11303A090E0DF91CF911F910F91FF90EF90DF903C
S11303B0CF90BF90AF909F908F9008952FB7F894EF
S11303C033275093200140931F019093450280935B
S11303D044027093970160939601109276011092F3
S11303E075012FBF452B29F08FB10E947001992709
S11303F0089587E00E943D0180E090E008958FB762
S1130400F89499271092D3018FBF08957FB7F89479
S113041062B720912201309123014091240150912F
S1130420250106B601FE0FC081B792B7280F311D12
S1130430411D511D2F5F3F4F4F4F5F4F290F311DFE
S1130440411D511D04C0260F311D411D511D872F13
S113045099278FBFCA01B90108952F923F924F92F5
S11304605F926F927F928F929F92AF92BF92CF9240
S1130470DF92EF92FF920F931F93CF93DF93CDB749
S1130480DEB729970FB6F894DEBF0FBECDBF6FB7A6
S11304906983F89420905A0130905B0140905C018C
S11304A050905D01662477248824BEE4AB2EA3E833
S11304B0BA2ECC24DD24EE24FF2400E010E0222D0B
S11304C0332D442D552D662D772D882D90E00E94D7
S11304D0D0162A833B834C835D836E837F83888716
S11304E09987822E932EA42EB52E2401350100E285
S11304F00E94CE17A22EB32EC42ED52EA301920194
S113050056954795379527952A0D3B1D4C1D5D1D26
S113051057FF05C05F772F5F3F4F4F4F5F4F2093CB
S11305205A0130935B0140935C0150935D01E98172
S11305308E2F99278FBFCA01B90129960FB6F89457
S1130540DEBF0FBECDBFDF91CF911F910F91FF9002
S1130550EF90DF90CF90BF90AF909F908F907F905F
S11305606F905F904F903F902F900895DF92EF929D
S1130570FF920F931F938FB7F894282F3327D22E0F
S113058091B782B746B7981711F041FF02C02FBF49
S11305906AC0809174018823E1F10E940602E09010
S11305A0CD01F090CE010091CF011091D0012091A6
S11305B034013091350140913601509137016E1963
S11305C07F09800B910B621773078407950720F04E
S11305D01092740171E01EC02E0D3F1D401F511F6B
S11305E08091220190912301A0912401B0912501D1
S11305F0281B390B4A0B5B0B273E3105410551057E
S113060040F4822F223010F070E005C070E082E0E8
S113061002C070E086EE682F615000B601FCFDCF89
S113062082B7681709F46F5F20912201309123018A
S11306304091240150912501DA01C9010196A11DBF
S1130640B11D860F911DA11DB11D82179307A4072B
S1130650B50710F4622F609561BFDFBE772319F0F0
S11306608AE00E943D011F910F91FF90EF90DF906F
S11306700895AFB7F894BB27E1E0E0937401609369
S1130680CD017093CE018093CF019093D00120933C
S11306903401309335014093360150933701AFBF95
S11306A00E94B6020895EF920F931F93AE2D99E026
S11306B0899FF0011124E558FE4F408351836283E2
S11306C073830483158326833783A17080858E7F8B
S11306D08A2B826080878BE00E943D011F910F91DD
S11306E0EF90089580E8809338011092540110929D
S11306F03E0210923A02109250010895CF93DF9374
S1130700FC0115A6DC019E96ED011B821A8219825A
S113071080E886A7DF91CF9108958FB7F894609110
S1130720790170917A012CB53DB506B602FE04C07C
S11307306F5F7F4F2CB53DB599278FBF88279927C9
S1130740CB017727662744275527622B732B842BED
S1130750952B0895EF92FF920F931F930E948D03A0
S11307607B018C0120916401309165014091660107
S11307705091670180915F0190916001A0916101A6
S1130780B0916201820F931FA41FB51FE216F306F6
S11307900407150730F082179307A407B50758F02C
S11307A005C082179307A407B507E0F5E816F90614
S11307B00A071B07B8F59C01AD012E193F09400B30
S11307C0510B213060E8360760E0460760E05607C9
S11307D068F180E090E8A0E0B0E0E80EF91E0A1F9E
S11307E01B1FE0926401F09265010093660110936F
S11307F0670180E090E8AFEFBFEFE80EF91E0A1F33
S11308001B1F205030484040504020935F013093DC
S11308106001409361015093620120E030E840E0C0
S113082050E014C020E030E040E050E080936401E8
S113083090936501A0936601B093670110925F01E4
S1130840109260011092610110926201A901B70136
S11308502CB53DB5C9018E199F09039684179507D8
S113086020F0B9016D5F7F4F02C0640F751F6115E1
S1130870710511F461E070E0615070407BBD6ABDA8
S113088080E186BF87B7806187BF1F910F91FF907A
S1130890EF9008950F931F930FB7F8941127609367
S11308A064017093650180936601909367012093BE
S11308B05F013093600140936101509362010E9493
S11308C0AA030FBF1F910F910895CF92DF92EF9269
S11308D0FF920F931F93CFB6F894DD240E942D024C
S11308E0DC01CB0166E470E00E945D185BE0E52E5C
S11308F0F12CE80EF91EF0924702E09246020E94A3
S11309008D0300271127A80197010E944A04CFBE36
S11309101F910F91FF90EF90DF90CF90089597B7BC
S11309209F7D97BF90E296BF882319F08EB58064AF
S113093002C08EB58F7B8EBD87B7806287BF80E093
S113094090E00895AF92BF92CF92DF92EF92FF9220
S11309500F931F93CF93DF93CDB7DEB728970FB6CE
S1130960F894DEBF0FBECDBF20E070E0E09100013F
S1130970F091010132E14DE65CE46FE48091010104
S11309809E2F28960FB6F894DEBF0FBECDBFDF9121
S1130990CF911F910F91FF90EF90DF90CF90BF9078
S11309A0AF9008951F920F920FB60F9211248F9358
S11309B083B783BF00B600FCFDCF8F910F900FBEAD
S11309C00F901F90189578941F920F920FB60F9264
S11309D011240F900FBE0F901F90189578941F92BA
S11309E00F920FB60F9211240F900FBE0F901F900D
S11309F0189578941F920F920FB60F9211242F938B
S1130A003F938F939F932FB7F89433278091790165
S1130A1090917A01019690937A01809379012FBF86
S1130A209F918F913F912F910F900FBE0F901F9028
S1130A3018951F920F920FB60F9211240F900FBEAC
S1130A400F901F9018951F920F920FB60F921124BA
S1130A500F900FBE0F901F9018951F920F920FB614
S1130A600F9211240F900FBE0F901F9018951F9294
S1130A700F920FB60F9211240F900FBE0F901F907C
S1130A8018951F920F920FB60F9211240F900FBE5C
S1130A900F901F9018951F920F920FB60F9211246A
S1130AA00F900FBE0F901F9018951F920F920FB6C4
S1130AB00F9211240F900FBE0F901F9018951F9244
S1130AC00F920FB60F9211242F933F934F935F937E
S1130AD06F937F938F939F93AF93BF93EF93FF9302
S1130AE083B783BF00B600FCFDCF81B79927019679
S1130AF0AA27BB2720912201309123014091240190
S1130B0050912501280F391F4A1F5B1F2093220192
S1130B1030932301409324015093250178940E943B
S1130B20B602FF91EF91BF91AF919F918F917F9109
S1130B306F915F914F913F912F910F900FBE0F9046
S1130B401F9018950F931F93182F0FB7F89461E017
S1130B5080E00E94B400882371F510930501809110
S1130B6008018823A9F580911601823089F586E071
S1130B700CC00E94EB0080911601882349F481E0A7
S1130B80809316011092510188E00E943D012AC011
S1130B90809163018F3F31F5E0910701EE2311F15C
S1130BA01CC01092060104C0FF27ED59FE4F1082AD
S1130BB01092070117C081E090E002C0880F991FCE
S1130BC01A95E2F720911501282B209315010AC0EC
S1130BD0809116018823E1F6CCCF809106018F3FE6
S1130BE019F7DFCF802F99278FBF80E090E01F9106
S1130BF00F9108951F9383E00E9400019927182FF5
S1130C00882319F083E00E94A205812F99271F9160
S1130C100895EF92FF920F931F93CF93DF93182FB2
S1130C207B01042F8FB7F894C82FDD2760E080E0A4
S1130C300E94CE00882321F0CFBF80E090E014C052
S1130C40CFBF1064812F992790936D0180936C011D
S1130C500E946401182F402F5527B70180E090E0CF
S1130C600E94DE01812F9927DF91CF911F910F916F
S1130C70FF90EF900895C09860911D0170911E013E
S1130C8041E08FE30E940906089582E090E090938A
S1130C904B0180934A0181E08093540120E030E0CD
S1130CA080910501843011F421E030E0232B29F4F4
S1130CB084E00E940001882319F40E943B060895F1
S1130CC084E00E94A20508951F920F920FB60F921E
S1130CD011242F933F934F935F936F937F938F933D
S1130CE09F93AF93BF93EF93FF9380914A019091A9
S1130CF04B01019749F482E090E090934B0180937B
S1130D004A010E94450605C0809150018F5F80937F
S1130D105001FF91EF91BF91AF919F918F917F917E
S1130D206F915F914F913F912F910F900FBE0F9054
S1130D301F9018951F9380911501882309F04BC0CB
S1130D40109105011F3F09F046C060E00E94CE00EB
S1130D50882309F440C081E08093E0018091390147
S1130D608823E1F11092E00185E090E045C09230E3
S1130D7069F5C09A8091060120E030E08F3F11F4BC
S1130D8021E030E0232BE9F4109308018F3F19F49C
S1130D902FEF30E00DC0282F3327F901ED59FE4F16
S1130DA08081809306018F3F11F410930701108313
S1130DB02093510181E08093160188E00E943D0157
S1130DC005C0109308011092160111C080911601FC
S1130DD0882369F00FC081E090E00EC08091080183
S1130DE090911601882319F2923021F0EFCF80E020
S1130DF00E94DF0080E090E01F9108951F93CF933D
S1130E00DF939FB7F894C92FDD271C2F909105011C
S1130E10981721F0CFBF81E090E03AC08FEF809324
S1130E200501309115013323F1F48FB7F894992714
S1130E301092D1018FBF0E949A06CFBF11C0209398
S1130E40050181E090E002C0880F991F4A95E2F7FE
S1130E50809538233093150186E00E943D011FBF21
S1130E6080E090E015C080E065E0E32FFF270E945A
S1130E705118292F492F5527CF01042E02C09595CB
S1130E8087950A94E2F780FDDACF822F8F5FEFCF48
S1130E90DF91CF911F9108951F93CF93DF938FB765
S1130EA0F894C82FDD271C2F80914A0190914B01A3
S1130EB0892B29F484E00E94FE06CFBF1EC0109245
S1130EC0540180915001882311F0B79904C00E9900
S1130ED008C0882319F08150809350010E94450670
S1130EE00BC081E090E090934B0180934A011092F3
S1130EF0500184E00E94FE061FBFDF91CF911F9135
S1130F000895FF920F931F93CF93DF93F82E8B01D5
S1130F108FB7F894C82FDD2760E080E00E94CE00F0
S1130F20882321F0CFBF80E090E00CC0CFBF8F2D8D
S1130F300E946401812F99270E946401802F0E94DE
S1130F4064019927DF91CF911F910F91FF9008952C
S1130F501F931FB7F89480914F01882319F460E020
S1130F6070E009C060E080914302882309F461E0E5
S1130F7081E06827772780915701882319F480E05E
S1130F8090E00AC090E08091D601882309F491E0B2
S1130F9081E09827892F9927762F6627770F770F77
S1130FA0770FE4E0880F991FEA95E1F7826E926269
S1130FB0682B792B81E10E948107812F99278FBFAC
S1130FC01F9108958FB7F89499276091DF018FBF1F
S1130FD085E0689FB0011124625D7E4F706488E1F2
S1130FE00E9481070895EF92FF921F93CF93DF939E
S1130FF0E0905801F0905901F70182A59927182F24
S1131000882309F41FE1C09880914E01811749F0AB
S1131010612F77276F717070606E706885E10E9430
S1131020810710934E01F70110818FB7F894C82FF0
S1131030DD2760E080E00E94CE00882311F0CFBF5E
S113104012C0CFBF8EE390E090936D0180936C014A
S11310508EE30E9464011150412F552760E070E037
S1131060C7010E94DE01DF91CF911F91FF90EF90A5
S113107008950F931F93CF93DF93EC010FB7F89468
S113108011270E947000FC018FE380830FBF109230
S113109041021092400261E082E00E94B400882381
S11310A019F085E090E072C08091E1018F5F809338
S11310B0E10181508B838FB7F894082F112762E0E8
S11310C081E00E94CE00882329F40FBF0E94FF0113
S11310D081E05BC08FB7F894992724E02093D20174
S11310E08FBFD0937301C09372010FBFFE0131967D
S11310F0818129819927982F88273327822B932B45
S113110080729C7C8983892F992781832981982FD8
S1131110882733272164822B932B8983892F99274E
S113112081831CA618A619A619AA18AA1FA680E8C6
S11311308EA761E06093D5014091720150917301D3
S11311408FB7F894282F33278091170190911801B5
S11311508830910511F0019711F02FBF15C082E07E
S113116090E0909318018093170160934A02509382
S1131170590140935801109221012FBF0E94FA0592
S1131180882311F40E94F30780E09927DF91CF911F
S11311901F910F910895CF93DF93DA01422F2D31E0
S11311A018F082E090E05EC0ED018B876E83872F9C
S11311B099278F832FB7F894332780915501909105
S11311C056012FBFFD018483892F992785832FB76B
S11311D0F89433278091090190910A012FBF8887E1
S11311E0892F992789873196818129819927982F79
S11311F08827332720643868822B932B8983892F8F
S113120099278183435F4C934D5080910C0188232F
S113121059F010920C01642FCD010E9439089927CE
S1131220282F8823A9F417C0842F9927909371013C
S113123080937001B0931C01A0931B018CE00E9469
S11312403D0180910C01882349F489E090E00AC0B3
S11312508FEF80930C01822F992704C010925E01B6
S113126080E090E0DF91CF910895CF93DF93FB016D
S1131270DB0116968683892F9927ED01898386E001
S113128083878091770190917801892B19F085E00B
S113129090E02BC07093780160937701435F4083A3
S11312A04D5080910F01882319F480E090E01DC017
S11312B08385ED0169817727762F66272681332779
S11312C0622B732B10920F01242FAF010E94CB08C5
S11312D09927282F882339F081E080930F011092F9
S11312E0780110927701822F9927DF91CF91089589
S11312F01F9380913A01882339F5809110018F5F03
S11313008093100111E01093A4018093A501209112
S11313109A013327322F22278091990199278062DD
S1131320282B392B20939901232F332720939A01BB
S11313308091040142E068E971E099270E9435092F
S1131340882311F410933A011F910895FC01662338
S113135011F410923A0184A5882361F09091100150
S113136080910201981741F480918C018D7F8093C4
S11313708C0108950E94780908950F931F93CF93C9
S1131380DF93182FEB01042FE82FFF27EE0FFF1F29
S1131390E958FE4F1182108210920F01E0917701FB
S11313A0F0917801309721F080913F0280FF0EC0C8
S11313B081E080930F0103C08EE00E943D01112360
S11313C0B9F4602FCE010E94A60912C020812D50CD
S11313D0332767817727762F662786819927682B9D
S11313E0792BAF0183850E94CB08882341F3E4CF96
S11313F0DF91CF911F910F9108959B0180910F016F
S1131400882349F46091770170917801621773071A
S113141011F40E94BD090895AF92BF92CF92DF925A
S1131420EF92FF920F931F93CF93DF935B016C01B5
S1131430C0E0D0E0EBE7F1E0608561FF41C02081CE
S1131440318142815381E480F58006811781D60180
S1131450C501821B930BA40BB50B8E159F05A0072A
S1131460B10770F160FF03C06D7F608708C02E0D67
S11314703F1D401F511F2083318342835383C1305A
S113148019F0C23019F508C0809110018F5F809364
S113149010010E9478091AC00E942D0222E02093B4
S11314A0A401209110012093A5016093A6018091CD
S11314B0030143E068E971E099270E94350906C0F9
S11314C021963996C330D10509F0B6CF8BE00E943E
S11314D03D01DF91CF911F910F91FF90EF90DF902D
S11314E0CF90BF90AF900895CF92DF92EF92FF928A
S11314F00F931F93CF93DF938C01F62E6A01E22E94
S11315008FB7F894C82FDD2760E080E00E94CE00FA
S1131510882321F0CFBF80E090E01EC0CFBF0F0D25
S1131520111D802F80680E946401F82E169507957E
S1131530802F807C0E9464010E2D0AC0EE2DFF27AF
S1131540E01BF109EC0DFD1D80810E946401015036
S11315500023A1F78F2D9927DF91CF911F910F9130
S1131560FF90EF90DF90CF900895CF93DF93CDB7A6
S1131570DEB72C970FB6F894DEBF0FBECDBF8FB782
S1131580F894282FAE014F5F5F4FDA01E7EDF1E0E9
S113159088E001900D928150E1F78091550190917E
S11315A056018987892F99278A87809168019091AC
S11315B069018B87892F99278C872FBF2CE060E0E6
S11315C080E691E00E94740A2C960FB6F894DEBF70
S11315D00FBECDBFDF91CF9108951F93CF93DF93BB
S11315E0182F8FB7F894C82FDD2760E080E00E94A1
S11315F0CE00882321F0CFBF80E090E005C0CFBFAC
S1131600812F0E9464019927DF91CF911F91089542
S11316100E947203C09AC09888E00E94ED0A88E094
S11316200E94ED0AC09A84E00E94FE060E944C07C4
S113163008951F93182F81E090E0909318018093F0
S11316401701109239010E949A068FB7F8949927CE
S1131650109311018FBF82E00E943D011F910895F4
S11316601F93CF93DF938FB7F894C82FDD271C2FD8
S113167080911701909118010897C9F489E00E949C
S1131680ED0A83E00E94FE06C09A81E090E0909308
S11316901801809317018FB7F894992723E02093BA
S11316A011018FBF82E00E943D01CFBF30C0C098BE
S11316B080914A02882311F085E001C084E00E94F1
S11316C0ED0A83FD09C080E00E94ED0A83FF04C097
S11316D085E090E020E003C083E090E021E0909377
S11316E0180180931701C09A1FBF222341F0109262
S11316F0210183E00E94FE060E94650408C00E9446
S11317008D0320E431E040E050E00E944A04DF9180
S1131710CF911F91089578941F920F920FB60F9254
S113172011242F923F924F925F926F927F928F92E9
S11317309F92AF92BF92CF92DF92EF92FF920F935C
S11317401F932F933F934F935F936F937F938F9345
S11317509F93AF93BF93CF93DF93EF93FF93C6B55C
S1131760D7B58FB7F894282E0E948D039B012C1BAC
S11317703D0B442755272B013C01421A530A640AA6
S1131780750A80911701909118018530910521F017
S1131790069709F0E0C0BFC086E090E0909318017E
S11317A08093170131E0332E3092530110921901C6
S11317B080E00E948F04E0915801F091590141AA00
S11317C0BB27A72D962D852D80ABC301AA27BB2748
S11317D087A7872D9927AA27BB2786A7E0915801B9
S11317E0F091590185A5882309F484C0608165506E
S11317F077274F01860E971EF4012081E1808281B4
S1131800A3809927AA27BB27BA2FA92F982F882707
S1131810332744275527522F442733272227FF24D1
S1131820002711278701FF24EE242E293F29402B6E
S1131830512BBB24CC24DD242A293B294C295D29A6
S1131840822B932BA42BB52B84199509A609B709D0
S11318508383292F3A2F4B2F552722839D01442719
S1131860552721838B2F9927AA27BB278083C098CC
S113187024E0A40180E090E00E94740AC09AF4017C
S11318802081E1808281A3809927AA27BB27BA2FD0
S1131890A92F982F8827332744275527522F4427C9
S11318A033272227FF24002711278701FF24EE2452
S11318B02E293F29402B512BBB24CC24DD242A295B
S11318C03B294C295D29822B932BA42BB52B840D0A
S11318D0951DA61DB71D8383292F3A2F4B2F5527FE
S11318E022839D014427552721838B2F9927AA27DB
S11318F0BB278083E0915801F0915901818185FFD4
S113190002C03092390183E00E94FE0687B78F7EC1
S113191087BF84997AC01092530181E00E948F049A
S1131920E0915801F0915901818185FF0FC087E052
S113193090E090931801809317010E948D0320E09A
S113194031E040E050E00E944A0403C080E00E947D
S1131950190B849B5AC080911901882391F58091B9
S11319605301882371F511E0109353010E948F04F1
S113197080B320913A02283098F4E0913E02E20FBD
S1131980FF27E770F070EE0FFF1FEE0FFF1FEA5105
S1131990FE4F40825182628273822F5F20933A020B
S11319A010931901D0936F01C0936E0184992DC0D7
S11319B0992774E0969587957A95E1F7182F117019
S11319C001C010E0809153018130F9F41092530169
S11319D00E948F04109219011123B9F480916E01B1
S11319E090916F01C81BD90B2A9778F480913A0221
S11319F0882319F0815080933A0280915801909184
S1131A005901009711F00E947E032FBEFF91EF91C0
S1131A10DF91CF91BF91AF919F918F917F916F9102
S1131A205F914F913F912F911F910F91FF90EF90F4
S1131A30DF90CF90BF90AF909F908F907F906F90EA
S1131A405F904F903F902F900F900FBE0F901F907C
S1131A50189578941F920F920FB60F9211241F932A
S1131A602F933F934F935F936F937F938F939F93A2
S1131A70AF93BF93EF93FF9387B78F7E87BF78941D
S1131A801FB7F89480915F0190916001A09161016A
S1131A90B09162010097A105B10509F051C0809190
S1131AA01701909118018530910561F186309105F7
S1131AB030F48330910549F0049781F51AC08730DA
S1131AC09105F1F0089751F514C0869B0FC084E08E
S1131AD090E090931801809317010E948D0327E0F2
S1131AE030E040E050E00E944A0418C00E946504BF
S1131AF015C00E94FA05882389F40E94300B0EC099
S1131B0080E00AC089E00E94ED0A81E00E948F040F
S1131B1083E00E94FE0687E00E94190B8091120167
S1131B2090911301019771F482E090E09093130176
S1131B3080931201DE98DE9A80E00E94A20502C022
S1131B400E94AA03812F99278FBFFF91EF91BF9124
S1131B50AF919F918F917F916F915F914F913F9141
S1131B602F911F910F900FBE0F901F90189561E059
S1131B7081E00E94B4008823E9F48FB7F894282FF9
S1131B8033278091120190911301892B11F02FBFFB
S1131B9020C081E090E090931301809312012FBF45
S1131BA0DD9A0E948D0324E130E040E050E00E9481
S1131BB04A040FC062E081E00E94CE00882319F03D
S1131BC089E090E0089561E081E00E94CE008823DE
S1131BD019F080E090E0089585E090E008951F9367
S1131BE00E94B70D182F0E94B70D181719F081E045
S1131BF090E002C0812F99271F910895EF920F93CF
S1131C001F93882369F40E940602AB01BC01EE24F1
S1131C1008EE13E020E030E081E00E94530302C0AC
S1131C200E94EF0D1F910F91EF900895EF92FF9294
S1131C300F931F93CF93DF938B0180916C0190914D
S1131C406D0186FF40C18F7B8F3309F08EC1C09137
S1131C501D01D0911E01588150934C0180914A017D
S1131C6090914B018530910509F443C0863091056C
S1131C7009F48AC0029709F01FC185E090E09093AF
S1131C804B0180934A0140913801852F9927019691
S1131C90242F3327281739074CF1B79906C00E991A
S1131CA004C0451B41504093380140914C014A32D5
S1131CB0E8F44423A1F0BE016F5F7F4F483018F071
S1131CC047E050E007C086E090E090934B0180939A
S1131CD04A01552780E090E00E94DE0146C110923F
S1131CE05401C09A84E00E94FE06E3C00E94080BDF
S1131CF03CC186E090E090934B0180934A0180912F
S1131D005701882309F439C08091D6018823A9F5A5
S1131D10898185FF32C08F814E812FB7F894332794
S1131D2060916801709169012FBF9927982F8827C6
S1131D305527842B952B8617970759F08F812E8171
S1131D409927982F88273327822B932B8F5F9F4FB8
S1131D50A1F489818770813081F4C09AC0988AE0A7
S1131D600E94ED0AC09AC09840914C0147502896B1
S1131D70BE018FE30E940906F8C040914C01475010
S1131D8055272896BE01A6CFC09A8091500188237A
S1131D9039F484E00E94FE0680915001882311F0FA
S1131DA0B7990AC00E9B08C090913A02992321F07A
S1131DB080914C018B3038F480911D0190911E016B
S1131DC00E947E033DC0913001F5E0913E02FF2761
S1131DD0EE0FFF1FEE0FFF1FEA51FE4F20813181EE
S1131DE042815381E0911D01F0911E0121ABBB277B
S1131DF0A52F942F832F80ABCA01AA27BB2787A7BF
S1131E00252F33274427552726A780913E0299275B
S1131E10019668E070E00E94711880933E02809100
S1131E203A02815080933A02882351F080911D0137
S1131E3090911E010E947E0310923E0210923A027B
S1131E4080914C01FE01E80FF11D808187FF31C0B4
S1131E50012B79F169816770E0911D01F0911E01F8
S1131E60623019F5A0915801B0915901109709F108
S1131E7080911701909118010797D9F4ED019B8186
S1131E8083819817B1F487B78F7E87BF908181E0F3
S1131E908CA7E90FF11D8291319688A780818F77F5
S1131EA089A780E00E94190B04C0613011F489E015
S1131EB02AC00E944C0759C010925401C09A84E071
S1131EC00E94FE0652C08E3309F04FC0C09A809122
S1131ED01701909118010897C9F4C09889E00E94ED
S1131EE0ED0AC09A83E00E94FE0681E090E09093A0
S1131EF01801809317018FB7F894992723E0209352
S1131F0011018FBF82E00E943D012FC080914A02DF
S1131F10882349F484E090E090931801809317019A
S1131F200E94300B22C083E00E94FE0683E090E012
S1131F3090931801809317010E942D02DC01CB01BC
S1131F4066E371E00E945D184BE0E42EF12CE80E8C
S1131F50F91EF0923301E09232010E948D030027B2
S1131F601127A80197010E944A04DF91CF911F9184
S1131F700F91FF90EF9008951F920F920FB60F925A
S1131F8011242F933F934F935F936F937F938F937A
S1131F909F93AF93BF93EF93FF932FB1E09196017B
S1131FA0F0919701309739F0809175019091760105
S1131FB0E80FF91F208380917501909176010196B5
S1131FC0909376018093750180E00E94E500409132
S1131FD01F01509120018091750190917601841721
S1131FE0950718F40E9470011CC0609196017091CD
S1131FF097018091440290914502109297011092AA
S113200096011092450210924402109220011092FF
S11320101F0110927601109275012FB120E00E94E9
S1132020160EFF91EF91BF91AF919F918F917F9188
S11320306F915F914F913F912F910F900FBE0F9031
S11320401F901895AF92BF92CF92DF92EF92FF92BA
S11320500F931F93CF93DF93CDB7DEB7A8970FB637
S1132060F894DEBF0FBECDBF873009F4F3C18830CA
S113207098F4833009F4D6C0843038F4813009F4FC
S11320807AC0823008F07DC024C0853009F4ECC0E9
S1132090863008F022C1E1C08B3009F4DFC38C30F4
S11320A038F4893009F40DC28A3008F0A4C3F5C1AC
S11320B08D3039F08D3008F429C48E3009F07EC497
S11320C070C480913F02882309F478C490E011E041
S11320D046C40FB7F894112781E00E948F0441E0B1
S11320E0E42EF12CF0921801E092170110921901DC
S11320F01092390110924E010FBF0FB7F8941127B7
S11321000E947203F0924B01E0924A011092540132
S113211089B78F7B89BF80E488BF8AB780628ABF12
S11321208AB78F7E8ABF89B7806489BF0FBF8FB794
S1132130F894082F112780911201909113010497AC
S113214019F483E00E94ED0A0FBF0FB7F89411272A
S1132150C09A80E00E94FE060FBF8FB7F8949927BB
S113216022E02093D2018FBF80E00E94FE0D80E028
S11321700E94FE0D23C48FB7F89499271092D201C0
S113218071C08FB7F8949927F09011018FBF63E065
S113219081E00E94CE00882359F10FB7F8941127EB
S11321A0109218011092170187B78F7E87BF87B7E7
S11321B08F7D87BF83E00E94FE06C09A0FBF0FB7D2
S11321C0F894112710924B0110924A010E94720355
S11321D0C09A89B78F7B89BF0FBF109213011092E9
S11321E01201DE98DD98DE9A81E00E943D0107C06D
S11321F08FB7F894992722E02093D2018FBF0091E2
S11322007201109173010E94FF018091400290912C
S11322104102892B09F0D2C38FEF80930C014F2D1B
S1132220B80194C38FB7F894282F3327122F8091C5
S11322304802882309F581E08093480280911201C5
S113224090911301049721F481E00E94A20503C038
S113225084E00E943D011FBFB1C38FB7F894992752
S1132260109248028FBFAAC38FB7F894282F332740
S113227080911401882311F02FBFA0C32FBF80B316
S1132280992736E0969587953A95E1F7182F1170BE
S113229090916A0180916B018917D9F01917C9F4DB
S11322A084E090E090931301809312018FB7F89427
S11322B0992721E0209314018FBF60E070E08DE145
S11322C00E9481070E94B50AC09AC09880E00E94CB
S11322D03D0110936B0185E06DC08FB7F894992789
S11322E0109105018FBF123009F467C0133030F428
S11322F0112359F0113009F061C348C0133009F4B7
S113230076C0143009F05AC3A2C0C0988FB7F894AD
S1132310082F112780911201909113010297A1F5C2
S113232083E090E0909313018093120168E170E0E0
S11323308DE10E94810781E080936A01109214016B
S113234080B3992726E0969587952A95E1F78170C1
S1132350907080936B0185E00E943D0181E00E94B2
S1132360ED0A6FE772E08CE10E9481070E94E207A8
S11323700E94A80766E57AE287E10E9481076FEF71
S113238070E885E10E9481070FBF18C3C09886E0FA
S11323900E94ED0A0E94E2070E94A8070E94B50A63
S11323A0C09AC09883E00E94ED0AC09A81E00E941E
S11323B0FE0684E00E943D0101C3C0988FB7F894E3
S11323C0082F112760E080E00E94CE00882311F0DE
S11323D00FBF0AC00FBF83E50E94640180E00E9422
S11323E0640180E00E946401C09A82E02DC08FB72E
S11323F0F8949927209117018FBF243039F02830A1
S113240041F0223001F50E94F307D8C20E94300B3C
S1132410D5C2C09889E00E94ED0AC09A83E00E9468
S1132420FE068FB7F894992721E030E03093180125
S1132430209317018FBF8FB7F89499271093110138
S11324408FBF82E0B7CF83E00E94FE06B7C20E942E
S11324503B06B4C20FB7F894112740911F01509165
S113246020016091960170919701809144029091AE
S11324704502109297011092960110924502109213
S113248044021092200110921F01109276011092C2
S1132490750120E00E94160E77CF2FB7F8943327EA
S11324A0809151018093080182E0809316012FBF2F
S11324B080910801882309F081C2B89AC09886E007
S11324C079CFA0911D01B0911E01DC909D012D0DCD
S11324D0311DF9018081881F8827881FFD0183A78A
S11324E0F90180818F77FD0181A721503040F901E6
S11324F08081FD0180A7A0911D01B0911E01FD0105
S113250032818FB7F894992720914F018FBF2223EE
S113251009F490C0832F992796958795969587956A
S1132520837090708230910541F5878146812FB781
S1132530F894332760916801709169012FBF99273E
S1132540982F88275527842B952B8617970719F4DE
S113255081E090E06CC0FD018781268140E050E07D
S11325609927982F88273327822B932B8F5F9F4F90
S113257011F441E050E0CA015AC0039709F032C196
S11325809E012F5F3F4F47ED51E088E0FA01019033
S1132590AF01F90101929F018150C1F79E012F5DA6
S11325A03F4FAE014F5F5F4F88E0FA010190AF01EA
S11325B0F90101929F018150C1F79E01275F3F4FAE
S11325C0AE014F5D5F4F88E0FA010190AF01F90160
S11325D001929F018150C1F79E012F5E3F4FAE01D2
S11325E0475F5F4F88E0FA010190AF01F901019262
S11325F09F018150C1F79E01275E3F4FAE014F5EA0
S11326005F4F88E0FA010190AF01F90101929F0147
S11326108150C1F748E050E0BE01675E7F4FCD01B5
S113262006960E94DA18892B09F0DCC003C08823BF
S113263009F4D8C0FCE0FD1508F0D4C0E0901D01F9
S1132640F0901E01F7012281822F992736E096959A
S113265087953A95E1F7039719F468E070E002C0B2
S113266062E070E0822F99279695879596958795D5
S113267083709070039719F488E090E002C082E0C0
S113268090E026E030E0E20EF31E40E050E020E06F
S113269030E0F701E80FF91F8AEF9FEFE80EF91E0B
S11326A005C08191480F511D2F5F3F4F26173707F3
S11326B0C4F3F70163818FEF809342028FB7F894DC
S11326C0782F20E030E0E6E2F1E080819181841708
S11326D0950731F48281861709F47DC02093420264
S11326E02F5F3F4F33962430310579F77FBF9091A8
S11326F042023FB7F8949F3F21F080911A01891755
S113270099F420911A01822F9927FC01EE0FFF1FE3
S1132710E80FF91FEA5DFE4F5183408362832F5F08
S1132720237020931A010CC0892F9927FC01EE0F06
S1132730FF1FE80FF91FEA5DFE4F51834083628358
S1132740832F99278FBF0FB7F8941127C7010E94D1
S11327507000FC0190810FBFF70183A5882309F461
S11327603DC09F3309F03AC0878146812FB7F89462
S113277033276091090170910A012FBF9927982F7F
S113278088275527842B952B8617970759F087811F
S113279026819927982F88273327822B932B8F5FA5
S11327A09F4FE1F4F70183858630C1F4F0E1DF1631
S11327B0A1F4F7018485813081F40E940602AB0103
S11327C0BC01E1E0EE2E0AE010E020E030E082E01F
S11327D00E94530302C07FBF01C07801F0921E0122
S11327E0E0921D018FB7F8949927109254018FBF7E
S11327F00E944C07E3C080914D01882361F520912C
S1132800E2013091E3014091E4015091E501EFB719
S1132810F894FF276091CD017091CE018091CF0192
S11328209091D001E0903401F0903501009136018F
S1132830109137016E0D7F1D801F911FEFBF2093F4
S1132840E2013093E3014093E4015093E5011092D7
S11328504D010E9439030E94060243C00E940602F1
S11328605B016C018FB7F8949927109274018FBFA4
S11328704FEFE42E4FEFF42E4FEF042F4FE7142FBA
S113288060E0EBE7F1E0808581FF1CC080819181ED
S1132890A281B381A6019501281B390B4A0B5B0B5E
S11328A0DA01C9012481358146815781281B390BFE
S11328B04A0B5B0B2E153F05400751071CF47901A9
S11328C08A0161E0399631E0E639F307E1F66623DF
S11328D009F474C01E141F04100611062CF0C6015E
S11328E0B5010E940C0A6AC0E092E201F092E30191
S11328F00093E4011093E50181E080934D01A80168
S11329009701C601B5010E94390358C090915E0138
S113291080910C01981709F451C090930C019923EC
S1132920D1F400911B0110911C0160917001C80148
S11329300E943908482F5527442309F43FC08FEFDC
S113294080930C0160911B0170911C01F801838537
S11329500E94FD0933C08FEF80930C012FC020919A
S11329603F02812F8223C1F0E92FFF27EE0FFF1FC3
S1132970E958FE4F4081518111821082812F809548
S1132980282320933F02992339F463E0CA010E946B
S1132990A609110F91E0E3CF9F5F983078F4110FEF
S11329A0DECF80910F01E82FFF27EE0FFF1FE958BC
S11329B0FE4F6081718141E00E94BD09A8960FB667
S11329C0F894DEBF0FBECDBFDF91CF911F910F9161
S11329D0FF90EF90DF90CF90BF90AF9008958091DB
S11329E03B028F3FB1F0282F3327F901E55CFE4FFE
S11329F0808180933B028F3F11F4809349028FEFD3
S1132A0080832F3F31F0822F0E94221081E090E0DA
S1132A10089580E090E008951F93CF93DF93CDB79E
S1132A20DEB7E0970FB6F894DEBF0FBECDBF1FB779
S1132A30F8944FE050E06FEF70E08BE391E00E9478
S1132A40E7188FEF80933B028093490281E08EBDAB
S1132A5088E080BF83E083BF8CB59DB54AE72CB581
S1132A603DB52817390708F44150442311F0C90132
S1132A70F6CF92B782B78917E9F32CB53DB592B773
S1132A8082B78917E9F38CB59DB5821B930B4096E9
S1132A9055E0969587955A95E1F790933D0280937A
S1132AA03C0213BE83B78EBD8EB580BF12BE1DBC63
S1132AB01CBC8FEF86BF86B780937C0080B79927B4
S1132AC087709070892BD1F7D29AD19AD09ADA9ADA
S1132AD0D99AD89A15BA8FEF84BBD498DC981DBCC8
S1132AE01CBC87B7846087BF8EB5887F84608EBD29
S1132AF00E94EF148823E1F7809100019091010175
S1132B000196AA27BB2780935A0190935B01A09357
S1132B105C01B0935D018FEF80935201E6E2F1E036
S1132B208FEF9FEF918380831282339621E0E2330B
S1132B30F207C1F70E942D026093E1018091000128
S1132B40909101010196AA27BB2780935A01909383
S1132B505B01A0935C01B0935D0180B7886080BF86
S1132B608BE083BF86EE81BF87B7826087BF0E94F8
S1132B70B60286E092E090931E0180931D018E9828
S1132B80B89A8C988FEF809363011092D1011092C0
S1132B90D2011092D3011092D401B89AD69AD59A40
S1132BA08FB7F89499272091090130910A018FBFBA
S1132BB030936901209368010E94A20429A73AA7CF
S1132BC04BA75CA76DA77EA78FA798ABDE01919654
S1132BD0FE01B99688E001900D928150E1F7DE0183
S1132BE05196FE01B19688E001900D928150E1F773
S1132BF0DE015996FE01719688E001900D92815094
S1132C00E1F7A7EDB1E0FE01799688E001900D921D
S1132C108150E1F780910B0199279093560180939D
S1132C2055018FE18093CC018AE18093DF010E94FA
S1132C30A20429A73AA74BA75CA76DA77EA78FA7D5
S1132C4098ABDE019196FE01B99688E001900D9251
S1132C508150E1F7DE011196FE01B19688E0019002
S1132C600D928150E1F7DE011996FE01319688E05C
S1132C7001900D928150E1F7A7EDB1E0FE01399684
S1132C8088E001900D928150E1F7A7EDB1E0FD01DC
S1132C9037969C9180818D939083319781E0EA3DB2
S1132CA0F807B9F781E080934F01109243028093B3
S1132CB057011092D6010E94EF148823E1F7812F67
S1132CC099278FBF78940E94EF0D8FB7F894482FFF
S1132CD055274BC087B7992783709070892B19F4B7
S1132CE0E5E0F0E013C080B7992787709070892BD6
S1132CF0D1F781B792B7891B8C3030F082B7853F0A
S1132D0018F4E3E0F0E002C0E2E0F0E087B7887B8B
S1132D10C1F480917D008B7FA1F46E9912C08AB1B9
S1132D2090919A00892B887161F48091740082FDDE
S1132D3008C0379B03C081E090E005C085E090E0C7
S1132D4002C080E090E025B78E1708F4E82FFF2733
S1132D50E457FF4FE491237E2062E22BE5BF789491
S1132D608895F89485B78F7D85BF80913B028F3F0E
S1132D7009F4B0CF282F3327F901E55CFE4F808199
S1132D8080933B028F3F11F4809349028FEF80833D
S1132D902F3F09F49FCF4FBF822F0E94221095CF5F
S1132DA0ACE2B0E0E6EDF6E10C94A318222E332E4B
S1132DB0442E552E662E772E882E992EFE0131969E
S1132DC0A8E01192AA95E9F729823A824B825C82A3
S1132DD06D827E828F829886FE013996B8E01192C8
S1132DE0BA95E9F7A986BA86CB86DC86ED86FE8697
S1132DF00F87188B89819A81AB81BC8189A79AA797
S1132E00ABA7BCA77C018D018FEF9FEFA0E0B0E0E2
S1132E10E822F9220A231B2389A59AA5ABA5BCA500
S1132E201D014424552489859A85AB85BC858DA3D1
S1132E309EA3AFA3B8A75C016D018FEF9FEFA0E045
S1132E40B0E0A822B922CA22DB228DA19EA1AFA1A3
S1132E50B8A53D0188249924C801B701A6019501AC
S1132E600E94841869A37AA38BA39CA3C801B70109
S1132E70A40193010E9484187B018C01C201B10159
S1132E80A60195010E9484185B016C01C201B10185
S1132E90A40193010E9484183B014C01EA0CFB1C21
S1132EA00C1D1D1D89A19AA1ABA1BCA19D014427A4
S1132EB055272E0D3F1D401F511F2A153B054C055C
S1132EC05D0540F480E090E0A1E0B0E0680E791E7A
S1132ED08A1E9B1ECA01AA27BB27860D971DA81D03
S1132EE0B91D8D8F9E8FAF8FB8A3A90133272227D9
S1132EF089A19AA1ABA1BCA1A070B070280F391F01
S1132F004A1F5B1F298F3A8F4B8F5C8FA98CBA8C19
S1132F10CB8CDC8CED8CFE8C0F8D18A1FE01719690
S1132F2098E011929A95E9F7ED8AFE8A0F8B188F33
S1132F302D813E814F8158856DA17EA18FA198A5D9
S1132F400E9484183B014C012D853E854F8558898C
S1132F5069A57AA58BA59CA50E9484182D893E8914
S1132F604F89588D260F371F481F591F260D371DAF
S1132F70481D591D2D8B3E8B4F8B588F6D887E8835
S1132F808F88988C2A2D3B2D4C2D5D2D662D772D09
S1132F90882D992DE2E1AC960C94BF18A0E1B0E025
S1132FA0E4EDF7E10C94A318222E332E442E552E73
S1132FB0662E772E882E992E002309F466C088E0A9
S1132FC0FE01319611928A95E9F729833A834B835E
S1132FD05C836D837E838F829887E0E2E01B1E16FC
S1132FE0CCF52D813E814F815885602F772767FD71
S1132FF07095DA01C901062E04C0B695A795979578
S113300087950A94D2F78D879E87AF87B88B04C0C3
S1133010220F331F441F551FEA95D2F789819A81E5
S1133020AB81BC8104C0B695A795979587956A95A1
S1133030D2F7282B392B4A2B5B2B29873A874B87CE
S11330405C8729843A844B845C846D847E848F8479
S113305098881BC01D861E861F86188A2E2F33272C
S113306027FD3095309521953F4F8D819E81AF810D
S1133070B88504C0B695A795979587952A95D2F7F4
S113308089879A87AB87BC87DCCF222D332D442DCB
S1133090552D662D772D882D992DE2E160960C949F
S11330A0BF18991B79E004C0991F961708F0961B66
S11330B0881F7A95C9F780950895AA1BBB1B51E117
S11330C007C0AA1FBB1FA617B70710F0A61BB70B94
S11330D0881F991F5A95A9F780959095BC01CD0139
S11330E0089597FB092E07260AD077FD04D0E5DF63
S11330F006D000201AF4709561957F4F0895F6F775
S1133100909581959F4F0895629FD001739FF00120
S1133110829FE00DF11D649FE00DF11D929FF00D63
S1133120839FF00D749FF00D659FF00D9927729F9A
S1133130B00DE11DF91F639FB00DE11DF91FBD0125
S1133140CF01112408952F923F924F925F926F9274
S11331507F928F929F92AF92BF92CF92DF92EF9223
S1133160FF920F931F93CF93DF93CDB7DEB7CA1BA4
S1133170DB0B0FB6F894DEBF0FBECDBF09942A88CF
S1133180398848885F846E847D848C849B84AA8477
S1133190B984C884DF80EE80FD800C811B81AA8104
S11331A0B981CE0FD11D0FB6F894DEBF0FBECDBFCF
S11331B0ED010895FB01DC0104C08D91019080199B
S11331C021F441505040C8F7881B990B0895DC0145
S11131D001C06D9341505040E0F70895FFCFC9
S11331DE0100530201FFFFFFFF010022FFFFFF0169
S9030000FC
