S01800006275696C642F6D6963617A2F6D61696E2E73726563E5
S11300000C9449000C9419050C9423050C942D05AB
S11300100C9437050C9441050C944B050C94640620
S11300200C9455050C9468000C9468000C94870B90
S11300300C94250D0C94E3040C94F9040C945F05C2
S11300400C94D2040C94B80F0C9468000C946800BF
S11300500C9468000C9468000C9468000C9468007C
S11300600C94EE040C9468000C9468000C946800E2
S11300700C9468000C9468000C9468000C9468005C
S11300800C9468000C9468000C94680000081C1818
S1130090141011241FBECFEFD0E1DEBFCDBF11E09D
S11300A0A0E0B1E0E6EDF1E300E00BBF02C0079091
S11300B00D92AE30B107D9F712E0AEE0B1E001C065
S11300C01D92AA34B107E1F70E9408150C94EA18AE
S11300D00C9400008FB7F894992708958FBF089562
S11300E0FC0182819927582F442781819927482B25
S11300F0592BCA01892F992786958695837090700C
S11301008230910559F08330910559F0892B19F407
S113011020E030E008C02CE93FEF05C022E030E0E9
S113012002C028E030E0CA0184E0989F812D99271D
S113013011248230910559F08330910559F0892BAF
S113014019F480E090E008C08CE99FEF05C082E0DC
S113015090E002C088E090E0280F391F2A5F3F4FEB
S1130160CF01820F931F0895282F9FB7F894662319
S113017049F0E82FFF27E053FE4F8081882311F0D8
S113018021E006C0E22FFF27E053FE4F608320E00A
S1130190892F99278FBF822F99270895E82F8FB72A
S11301A0F894282F332790E0FF27E053FE4F8081F7
S11301B0861709F491E02FBF892F99270895882382
S11301C011F06E9A08956E980895882311F06F9A2D
S11301D008956F98089580E00E94DF00BA9ABB9852
S11301E0B99AB89A6C9A80E00E94E5006B986A9874
S11301F081E00E94DF00709A8DB18C7F8DB90895E3
S11302000F931F93CF93DF93182F8FB7F894C82FB2
S1130210DD270C2F61E080E00E94B400882321F0E8
S1130220CFBF85E090E024C0809106018823A1F42B
S113023080911501823081F409C082E08093150118
S1130240109206010E94EB00B89AC0981093030123
S113025080E00FBF99270CC080911501882369F3B2
S11302608FB7F89499271092D0018FBF81E0F1CF16
S1130270DF91CF911F910F910895282F9FB7F89484
S1130280E82FFF27E65CFE4F80818F3F81F4E091E9
S11302904802E21771F40BC020933A0204C0FF270E
S11302A0E65CFE4F20832093480220E007C025E04F
S11302B005C080913A028F3F91F7EECF892F99279D
S11302C08FBF822F992708951F93182F81E00E94D2
S11302D0DF001FB9779BFECF8FB199271F91089537
S11302E08F929F92AF92BF92CF92DF92EF92FF9242
S11302F00F931F93CF93DF938FB7F8949927C090F0
S11303004302D09044028090950190909601C09150
S11303107401D091750120911E0130911F01EAE012
S1130320AE2EB12CAC0EBD1E2A153B0508F45901A6
S11303308FBF7401EC0EFD1E86010C0F1D1F14C02F
S1130340C114D10419F0F801808101C080E00E9439
S113035064018114910411F0F701808321960894BB
S1130360E11CF11C0F5F1F4FC5010197C817D90786
S113037038F381E00E94E5009FB7F894C114D104DA
S113038031F0CC0EDD1EF60180818FB901C01FB89B
S1130390D0937501C0937401892F99278FBF80E092
S11303A090E0DF91CF911F910F91FF90EF90DF903C
S11303B0CF90BF90AF909F908F9008952FB7F894EF
S11303C0332750931F0140931E019093440280935E
S11303D043027093960160939501109275011092F7
S11303E074012FBF452B29F08FB10E94700199270A
S11303F0089587E00E943D0180E090E008958FB762
S1130400F89499271092D2018FBF08957FB7F8947A
S113041062B7209121013091220140912301509132
S1130420240106B601FE0FC081B792B7280F311D13
S1130430411D511D2F5F3F4F4F4F5F4F290F311DFE
S1130440411D511D04C0260F311D411D511D872F13
S113045099278FBFCA01B90108952F923F924F92F5
S11304605F926F927F928F929F92AF92BF92CF9240
S1130470DF92EF92FF920F931F93CF93DF93CDB749
S1130480DEB729970FB6F894DEBF0FBECDBF6FB7A6
S11304906983F8942090590130905A0140905B018F
S11304A050905C01662477248824BEE4AB2EA3E834
S11304B0BA2ECC24DD24EE24FF2400E010E0222D0B
S11304C0332D442D552D662D772D882D90E00E94D7
S11304D0CC162A833B834C835D836E837F8388871A
S11304E09987822E932EA42EB52E2401350100E285
S11304F00E94CA17A22EB32EC42ED52EA301920198
S113050056954795379527952A0D3B1D4C1D5D1D26
S113051057FF05C05F772F5F3F4F4F4F5F4F2093CB
S1130520590130935A0140935B0150935C01E98176
S11305308E2F99278FBFCA01B90129960FB6F89457
S1130540DEBF0FBECDBFDF91CF911F910F91FF9002
S1130550EF90DF90CF90BF90AF909F908F907F905F
S11305606F905F904F903F902F900895DF92EF929D
S1130570FF920F931F938FB7F894282F3327D22E0F
S113058091B782B746B7981711F041FF02C02FBF49
S11305906AC0809173018823E1F10E940602E09011
S11305A0CC01F090CD010091CE011091CF012091AA
S11305B033013091340140913501509136016E1967
S11305C07F09800B910B621773078407950720F04E
S11305D01092730171E01EC02E0D3F1D401F511F6C
S11305E08091210190912201A0912301B0912401D5
S11305F0281B390B4A0B5B0B273E3105410551057E
S113060040F4822F223010F070E005C070E082E0E8
S113061002C070E086EE682F615000B601FCFDCF89
S113062082B7681709F46F5F20912101309122018C
S11306304091230150912401DA01C9010196A11DC1
S1130640B11D860F911DA11DB11D82179307A4072B
S1130650B50710F4622F609561BFDFBE772319F0F0
S11306608AE00E943D011F910F91FF90EF90DF906F
S11306700895AFB7F894BB27E1E0E093730160936A
S1130680CC017093CD018093CE019093CF01209340
S11306903301309334014093350150933601AFBF99
S11306A00E94B6020895EF920F931F93AE2D99E026
S11306B0899FF0011124E658FE4F408351836283E1
S11306C073830483158326833783A17080858E7F8B
S11306D08A2B826080878BE00E943D011F910F91DD
S11306E0EF90089580E8809337011092530110929F
S11306F03D021092390210924F010895CF93DF9377
S1130700FC0115A6DC019E96ED011B821A8219825A
S113071080E886A7DF91CF9108958FB7F894609110
S11307207801709179012CB53DB506B602FE04C07E
S11307306F5F7F4F2CB53DB599278FBF88279927C9
S1130740CB017727662744275527622B732B842BED
S1130750952B0895EF92FF920F931F930E948D03A0
S11307607B018C012091630130916401409165010A
S11307705091660180915E0190915F01A0916001AA
S1130780B0916101820F931FA41FB51FE216F306F7
S11307900407150730F082179307A407B50758F02C
S11307A005C082179307A407B507E0F5E816F90614
S11307B00A071B07B8F59C01AD012E193F09400B30
S11307C0510B213060E8360760E0460760E05607C9
S11307D068F180E090E8A0E0B0E0E80EF91E0A1F9E
S11307E01B1FE0926301F092640100936501109372
S11307F0660180E090E8AFEFBFEFE80EF91E0A1F34
S11308001B1F205030484040504020935E013093DD
S11308105F01409360015093610120E030E840E0C3
S113082050E014C020E030E040E050E080936301E9
S113083090936401A0936501B093660110925E01E8
S113084010925F011092600110926101A901B70139
S11308502CB53DB5C9018E199F09039684179507D8
S113086020F0B9016D5F7F4F02C0640F751F6115E1
S1130870710511F461E070E0615070407BBD6ABDA8
S113088080E186BF87B7806187BF1F910F91FF907A
S1130890EF9008950F931F930FB7F8941127609367
S11308A063017093640180936501909366012093C2
S11308B05E0130935F0140936001509361010E9497
S11308C0AA030FBF1F910F910895CF92DF92EF9269
S11308D0FF920F931F93CFB6F894DD240E942D024C
S11308E0DC01CB0166E470E00E9459185BE0E52E60
S11308F0F12CE80EF91EF0924602E09245020E94A5
S11309008D0300271127A80197010E944A04CFBE36
S11309101F910F91FF90EF90DF90CF90089597B7BC
S11309209F7D97BF90E296BF882319F08EB58064AF
S113093002C08EB58F7B8EBD87B7806287BF80E093
S113094090E00895AF92BF92CF92DF92EF92FF9220
S11309500F931F93CF93DF93CDB7DEB728970FB6CE
S1130960F894DEBF0FBECDBF20E070E0E09100013F
S1130970F091010132E14DE65CE46FE48091010104
S11309809E2F28960FB6F894DEBF0FBECDBFDF9121
S1130990CF911F910F91FF90EF90DF90CF90BF9078
S11309A0AF9008951F920F920FB60F9211248F9358
S11309B083B783BF00B600FCFDCF8F910F900FBEAD
S11309C00F901F90189578941F920F920FB60F9264
S11309D011240F900FBE0F901F90189578941F92BA
S11309E00F920FB60F9211240F900FBE0F901F900D
S11309F0189578941F920F920FB60F9211242F938B
S1130A003F938F939F932FB7F89433278091780166
S1130A1090917901019690937901809378012FBF89
S1130A209F918F913F912F910F900FBE0F901F9028
S1130A3018951F920F920FB60F9211240F900FBEAC
S1130A400F901F9018951F920F920FB60F921124BA
S1130A500F900FBE0F901F9018951F920F920FB614
S1130A600F9211240F900FBE0F901F9018951F9294
S1130A700F920FB60F9211240F900FBE0F901F907C
S1130A8018951F920F920FB60F9211240F900FBE5C
S1130A900F901F9018951F920F920FB60F9211246A
S1130AA00F900FBE0F901F9018951F920F920FB6C4
S1130AB00F9211240F900FBE0F901F9018951F9244
S1130AC00F920FB60F9211242F933F934F935F937E
S1130AD06F937F938F939F93AF93BF93EF93FF9302
S1130AE083B783BF00B600FCFDCF81B79927019679
S1130AF0AA27BB2720912101309122014091230193
S1130B0050912401280F391F4A1F5B1F2093210194
S1130B1030932201409323015093240178940E943E
S1130B20B602FF91EF91BF91AF919F918F917F9109
S1130B306F915F914F913F912F910F900FBE0F9046
S1130B401F9018950F931F93182F0FB7F89461E017
S1130B5080E00E94B400882371F510930301809112
S1130B6006018823A9F580911501823089F586E074
S1130B700CC00E94EB0080911501882349F481E0A8
S1130B80809315011092500188E00E943D012AC013
S1130B90809162018F3F31F5E0910501EE2311F15F
S1130BA01CC01092040104C0FF27EE59FE4F1082AE
S1130BB01092050117C081E090E002C0880F991FD0
S1130BC01A95E2F720911401282B209314010AC0EE
S1130BD0809115018823E1F6CCCF809104018F3FE9
S1130BE019F7DFCF802F99278FBF80E090E01F9106
S1130BF00F9108951F9383E00E9400019927182FF5
S1130C00882319F083E00E94A205812F99271F9160
S1130C100895EF92FF920F931F93CF93DF93182FB2
S1130C207B01042F8FB7F894C82FDD2760E080E0A4
S1130C300E94CE00882321F0CFBF80E090E014C052
S1130C40CFBF1064812F992790936C0180936B011F
S1130C500E946401182F402F5527B70180E090E0CF
S1130C600E94DE01812F9927DF91CF911F910F916F
S1130C70FF90EF900895C09860911C0170911D0140
S1130C8041E08FE30E940906089582E090E090938A
S1130C904A018093490181E08093530120E030E0D0
S1130CA080910301843011F421E030E0232B29F4F6
S1130CB084E00E940001882319F40E943B060895F1
S1130CC084E00E94A20508951F920F920FB60F921E
S1130CD011242F933F934F935F936F937F938F933D
S1130CE09F93AF93BF93EF93FF93809149019091AA
S1130CF04A01019749F482E090E090934A0180937D
S1130D0049010E94450605C080914F018F5F809381
S1130D104F01FF91EF91BF91AF919F918F917F917F
S1130D206F915F914F913F912F910F900FBE0F9054
S1130D301F9018951F9380911401882309F04BC0CC
S1130D40109103011F3F09F046C060E00E94CE00ED
S1130D50882309F440C081E08093DF018091380149
S1130D608823E1F11092DF0185E090E045C09230E4
S1130D7069F5C09A8091040120E030E08F3F11F4BE
S1130D8021E030E0232BE9F4109306018F3F19F49E
S1130D902FEF30E00DC0282F3327F901EE59FE4F15
S1130DA08081809304018F3F11F410930501108317
S1130DB02093500181E08093150188E00E943D0159
S1130DC005C0109306011092150111C08091150100
S1130DD0882369F00FC081E090E00EC08091060185
S1130DE090911501882319F2923021F0EFCF80E021
S1130DF00E94DF0080E090E01F9108951F93CF933D
S1130E00DF939FB7F894C92FDD271C2F909103011E
S1130E10981721F0CFBF81E090E03AC08FEF809324
S1130E200301309114013323F1F48FB7F894992717
S1130E301092D0018FBF0E949A06CFBF11C0209399
S1130E40030181E090E002C0880F991F4A95E2F700
S1130E50809538233093140186E00E943D011FBF22
S1130E6080E090E015C080E065E0E32FFF270E945A
S1130E704D18292F492F5527CF01042E02C09595CF
S1130E8087950A94E2F780FDDACF822F8F5FEFCF48
S1130E90DF91CF911F9108951F93CF93DF938FB765
S1130EA0F894C82FDD271C2F8091490190914A01A5
S1130EB0892B29F484E00E94FE06CFBF1EC0109245
S1130EC0530180914F01882311F0B79904C00E9902
S1130ED008C0882319F0815080934F010E94450671
S1130EE00BC081E090E090934A01809349011092F5
S1130EF04F0184E00E94FE061FBFDF91CF911F9136
S1130F000895FF920F931F93CF93DF93F82E8B01D5
S1130F108FB7F894C82FDD2760E080E00E94CE00F0
S1130F20882321F0CFBF80E090E00CC0CFBF8F2D8D
S1130F300E946401812F99270E946401802F0E94DE
S1130F4064019927DF91CF911F910F91FF9008952C
S1130F501F931FB7F89480914E01882319F460E021
S1130F6070E009C060E080914202882309F461E0E6
S1130F7081E06827772780915601882319F480E05F
S1130F8090E00AC090E08091D501882309F491E0B3
S1130F9081E09827892F9927762F6627770F770F77
S1130FA0770FE4E0880F991FEA95E1F7826E926269
S1130FB0682B792B81E10E948107812F99278FBFAC
S1130FC01F9108958FB7F89499276091DE018FBF20
S1130FD085E0689FB0011124625D7E4F706488E1F2
S1130FE00E9481070895EF92FF921F93CF93DF939E
S1130FF0E0905701F0905801F70182A59927182F26
S1131000882309F41FE1C09880914D01811749F0AC
S1131010612F77276F717070606E706885E10E9430
S1131020810710934D01F70110818FB7F894C82FF1
S1131030DD2760E080E00E94CE00882311F0CFBF5E
S113104012C0CFBF8EE390E090936C0180936B014C
S11310508EE30E9464011150412F552760E070E037
S1131060C7010E94DE01DF91CF911F91FF90EF90A5
S113107008950F931F93CF93DF93EC010FB7F89468
S113108011270E947000FC018FE380830FBF109230
S1131090400210923F0261E082E00E94B400882383
S11310A019F085E090E072C08091E0018F5F809339
S11310B0E00181508B838FB7F894082F112762E0E9
S11310C081E00E94CE00882329F40FBF0E94FF0113
S11310D081E05BC08FB7F894992724E02093D10175
S11310E08FBFD0937201C09371010FBFFE0131967F
S11310F0818129819927982F88273327822B932B45
S113110080729C7C8983892F992781832981982FD8
S1131110882733272164822B932B8983892F99274E
S113112081831CA618A619A619AA18AA1FA680E8C6
S11311308EA761E06093D4014091710150917201D6
S11311408FB7F894282F33278091160190911701B7
S11311508830910511F0019711F02FBF15C082E07E
S113116090E0909317018093160160934902509385
S1131170580140935701109220012FBF0E94FA0595
S1131180882311F40E94F30780E09927DF91CF911F
S11311901F910F910895CF93DF93DA01422F2D31E0
S11311A018F082E090E05EC0ED018B876E83872F9C
S11311B099278F832FB7F894332780915401909106
S11311C055012FBFFD018483892F992785832FB76C
S11311D0F894332780910701909108012FBF8887E5
S11311E0892F992789873196818129819927982F79
S11311F08827332720643868822B932B8983892F8F
S113120099278183435F4C934D5080910A01882331
S113121059F010920A01642FCD010E9439089927D0
S1131220282F8823A9F417C0842F9927909370013D
S113123080936F01B0931B01A0931A018CE00E946C
S11312403D0180910A01882349F489E090E00AC0B5
S11312508FEF80930A01822F992704C010925D01B9
S113126080E090E0DF91CF910895CF93DF93FB016D
S1131270DB0116968683892F9927ED01898386E001
S113128083878091760190917701892B19F085E00D
S113129090E02BC07093770160937601435F4083A5
S11312A04D5080910D01882319F480E090E01DC019
S11312B08385ED0169817727762F66272681332779
S11312C0622B732B10920D01242FAF010E94CB08C7
S11312D09927282F882339F081E080930D011092FB
S11312E0770110927601822F9927DF91CF9108958B
S11312F01F9380913901882319F511E01093A301FC
S113130080910E018093A401209199013327322FFB
S113131022278091980199278062282B392B2093CA
S11313209801232F33272093990142E067E971E064
S11313308FEF9FEF0E943509882311F41093390130
S11313401F910895FC01662311F41092390184A5BC
S1131350882361F090910E0180910201981741F465
S113136080918B018D7F80938B0108950E94780971
S113137008950F931F93CF93DF93182FEB01042F3E
S1131380E82FFF27EE0FFF1FEA58FE4F118210824D
S113139010920D01E0917601F0917701309721F0E0
S11313A080913E0280FF0EC081E080930D0103C056
S11313B08EE00E943D011123B9F4602FCE010E94FA
S11313C0A20912C020812D50332767817727762FF9
S11313D0662786819927682B792BAF0183850E9424
S11313E0CB08882341F3E4CFDF91CF911F910F9174
S11313F008959B0180910D01882349F46091760141
S1131400709177016217730711F40E94B909089566
S1131410AF92BF92CF92DF92EF92FF920F931F93FE
S1131420CF93DF935B016C01C0E0D0E0EAE7F1E029
S1131430608561FF41C02081318142815381E48014
S1131440F58006811781D601C501821B930BA40B7D
S1131450B50B8E159F05A007B10770F160FF03C09F
S11314606D7F608708C02E0D3F1D401F511F2083D4
S1131470318342835383C13019F0C23019F508C057
S113148080910E018F5F80930E010E9478091AC02B
S11314900E942D0222E02093A30120910E012093AB
S11314A0A4016093A50180910F0143E067E971E015
S11314B099270E94350906C021963996C330D10573
S11314C009F0B6CF8BE00E943D01DF91CF911F91CF
S11314D00F91FF90EF90DF90CF90BF90AF90089561
S11314E0CF92DF92EF92FF920F931F93CF93DF93EC
S11314F08C01F62E6A01E22E8FB7F894C82FDD27EF
S113150060E080E00E94CE00882321F0CFBF80E01D
S113151090E01EC0CFBF0F0D111D802F80680E9468
S11315206401F82E16950795802F807C0E94640133
S11315300E2D0AC0EE2DFF27E01BF109EC0DFD1D59
S113154080810E94640101500023A1F78F2D992707
S1131550DF91CF911F910F91FF90EF90DF90CF908B
S11315600895CF93DF93CDB7DEB72C970FB6F894D9
S1131570DEBF0FBECDBF8FB7F894282FAE014F5FEB
S11315805F4FDA01E6EDF1E088E001900D928150C1
S1131590E1F780915401909155018987892F99270A
S11315A08A8780916701909168018B87892F992799
S11315B08C872FBF2CE060E080E691E00E94700AE7
S11315C02C960FB6F894DEBF0FBECDBFDF91CF913E
S11315D008951F93CF93DF93182F8FB7F894C82FD4
S11315E0DD2760E080E00E94CE00882321F0CFBF99
S11315F080E090E005C0CFBF812F0E94640199274D
S1131600DF91CF911F9108950E947203C09AC098F0
S113161088E00E94E90A88E00E94E90AC09A84E00E
S11316200E94FE060E944C0708951F93182F81E024
S113163090E09093170180931601109238010E9454
S11316409A068FB7F8949927109310018FBF82E000
S11316500E943D011F9108951F93CF93DF938FB78D
S1131660F894C82FDD271C2F809116019091170143
S11316700897C9F489E00E94E90A83E00E94FE0603
S1131680C09A81E090E090931701809316018FB780
S1131690F894992723E0209310018FBF82E00E94E1
S11316A03D01CFBF30C0C09880914902882311F01A
S11316B085E001C084E00E94E90A83FD09C080E05E
S11316C00E94E90A83FF04C085E090E020E003C0A3
S11316D083E090E021E09093170180931601C09A73
S11316E01FBF222341F01092200183E00E94FE06D6
S11316F00E94650408C00E948D0320E431E040E0AC
S113170050E00E944A04DF91CF911F91089578948C
S11317101F920F920FB60F9211242F923F924F9265
S11317205F926F927F928F929F92AF92BF92CF926D
S1131730DF92EF92FF920F931F932F933F934F9358
S11317405F936F937F938F939F93AF93BF93CF9345
S1131750DF93EF93FF93C6B5D7B58FB7F894282ED0
S11317600E948D039B012C1B3D0B442755272B0105
S11317703C01421A530A640A750A80911601909139
S113178017018530910521F0069709F0E0C0BFC02C
S113179086E090E0909317018093160131E0332E98
S11317A0309252011092180180E00E948F04E0915F
S11317B05701F091580141AABB27A72D962D852DDD
S11317C080ABC301AA27BB2787A7872D9927AA2700
S11317D0BB2786A7E0915701F091580185A588237E
S11317E009F484C06081655077274F01860E971EE7
S11317F0F4012081E1808281A3809927AA27BB2755
S1131800BA2FA92F982F8827332744275527522FDB
S1131810442733272227FF24002711278701FF2489
S1131820EE242E293F29402B512BBB24CC24DD242C
S11318302A293B294C295D29822B932BA42BB52BD8
S113184084199509A609B7098383292F3A2F4B2FA9
S1131850552722839D014427552721838B2F9927C0
S1131860AA27BB278083C09824E0A40180E090E0ED
S11318700E94700AC09AF4012081E1808281A380D1
S11318809927AA27BB27BA2FA92F982F8827332750
S113189044275527522F442733272227FF24002784
S11318A011278701FF24EE242E293F29402B512B99
S11318B0BB24CC24DD242A293B294C295D29822BF5
S11318C0932BA42BB52B840D951DA61DB71D8383C7
S11318D0292F3A2F4B2F552722839D014427552723
S11318E021838B2F9927AA27BB278083E091570157
S11318F0F0915801818185FF02C03092380183E064
S11319000E94FE0687B78F7E87BF84997AC01092A3
S1131910520181E00E948F04E0915701F091580137
S1131920818185FF0FC087E090E090931701809339
S113193016010E948D0320E031E040E050E00E9457
S11319404A0403C080E00E94150B849B5AC0809116
S11319501801882391F580915201882371F511E0D3
S1131960109352010E948F0480B3209139022830D1
S113197098F4E0913D02E20FFF27E770F070EE0F5C
S1131980FF1FEE0FFF1FEB51FE4F40825182628218
S113199073822F5F2093390210931801D0936E0144
S11319A0C0936D0184992DC0992774E0969587950D
S11319B07A95E1F7182F117001C010E0809152015F
S11319C08130F9F4109252010E948F041092180190
S11319D01123B9F480916D0190916E01C81BD90B4C
S11319E02A9778F480913902882319F081508093E2
S11319F039028091570190915801009711F00E948B
S1131A007E032FBEFF91EF91DF91CF91BF91AF91F4
S1131A109F918F917F916F915F914F913F912F9102
S1131A201F910F91FF90EF90DF90CF90BF90AF90F8
S1131A309F908F907F906F905F904F903F902F90EA
S1131A400F900FBE0F901F90189578941F920F92CD
S1131A500FB60F9211241F932F933F934F935F93CD
S1131A606F937F938F939F93AF93BF93EF93FF9362
S1131A7087B78F7E87BF78941FB7F89480915E01F3
S1131A8090915F01A0916001B09161010097A1055F
S1131A90B10509F051C0809116019091170185306C
S1131AA0910561F18630910530F48330910549F058
S1131AB0049781F51AC087309105F1F0089751F524
S1131AC014C0869B0FC084E090E09093170180932C
S1131AD016010E948D0327E030E040E050E00E94B0
S1131AE04A0418C00E94650415C00E94FA058823A0
S1131AF089F40E942C0B0EC080E00AC089E00E9489
S1131B00E90A81E00E948F0483E00E94FE0687E0D8
S1131B100E94150B8091110190911201019771F4AB
S1131B2082E090E09093120180931101DE98DE9A96
S1131B3080E00E94A20502C00E94AA03812F992777
S1131B408FBFFF91EF91BF91AF919F918F917F9143
S1131B506F915F914F913F912F911F910F900FBE05
S1131B600F901F90189561E081E00E94B4008823D3
S1131B70E9F48FB7F894282F3327809111019091BD
S1131B801201892B11F02FBF20C081E090E09093C7
S1131B901201809311012FBFDD9A0E948D0324E16D
S1131BA030E040E050E00E944A040FC062E081E06F
S1131BB00E94CE00882319F089E090E0089561E046
S1131BC081E00E94CE00882319F080E090E008951F
S1131BD085E090E008951F930E94B30D182F0E9492
S1131BE0B30D181719F081E090E002C0812F9927F6
S1131BF01F910895EF920F931F93882369F40E9415
S1131C000602AB01BC01EE2408EE13E020E030E054
S1131C1081E00E94530302C00E94EB0D1F910F91BB
S1131C20EF900895EF92FF920F931F93CF93DF935A
S1131C308B0180916B0190916C0186FF40C18F7B79
S1131C408F3309F08EC1C0911C01D0911D015881C0
S1131C5050934B018091490190914A01853091053F
S1131C6009F443C08630910509F48AC0029709F04B
S1131C701FC185E090E090934A018093490140910F
S1131C803701852F99270196242F332728173907E1
S1131C904CF1B79906C00E9904C0451B41504093BE
S1131CA0370140914B014A32E8F44423A1F0BE01CC
S1131CB06F5F7F4F483018F047E050E007C086E080
S1131CC090E090934A0180934901552780E090E089
S1131CD00E94DE0146C110925301C09A84E00E9422
S1131CE0FE06E3C00E94040B3CC186E090E09093A2
S1131CF04A018093490180915601882309F439C02F
S1131D008091D5018823A9F5898185FF32C08F810F
S1131D104E812FB7F8943327609167017091680161
S1131D202FBF9927982F88275527842B952B861703
S1131D30970759F08F812E819927982F8827332769
S1131D40822B932B8F5F9F4FA1F489818770813001
S1131D5081F4C09AC0988AE00E94E90AC09AC098A7
S1131D6040914B0147502896BE018FE30E9409061B
S1131D70F8C040914B01475055272896BE01A6CF85
S1131D80C09A80914F01882339F484E00E94FE06B2
S1131D9080914F01882311F0B7990AC00E9B08C0A7
S1131DA090913902992321F080914B018B3038F4C2
S1131DB080911C0190911D010E947E033DC09130D1
S1131DC001F5E0913D02FF27EE0FFF1FEE0FFF1F0D
S1131DD0EB51FE4F2081318142815381E0911C01FE
S1131DE0F0911D0121ABBB27A52F942F832F80AB2E
S1131DF0CA01AA27BB2787A7252F3327442755279E
S1131E0026A780913D029927019668E070E00E9420
S1131E106D1880933D02809139028150809339027C
S1131E20882351F080911C0190911D010E947E0332
S1131E3010923D021092390280914B01FE01E80F8D
S1131E40F11D808187FF31C0012B79F169816770B1
S1131E50E0911C01F0911D01623019F5A091570128
S1131E60B0915801109709F18091160190911701D2
S1131E700797D9F4ED019B8183819817B1F487B753
S1131E808F7E87BF908181E08CA7E90FF11D82913D
S1131E90319688A780818F7789A780E00E94150BEF
S1131EA004C0613011F489E02AC00E944C0759C073
S1131EB010925301C09A84E00E94FE0652C08E33F1
S1131EC009F04FC0C09A80911601909117010897AC
S1131ED0C9F4C09889E00E94E90AC09A83E00E948C
S1131EE0FE0681E090E090931701809316018FB76E
S1131EF0F894992723E0209310018FBF82E00E9479
S1131F003D012FC080914902882349F484E090E088
S1131F1090931701809316010E942C0B22C083E03A
S1131F200E94FE0683E090E09093170180931601CF
S1131F300E942D02DC01CB0166E371E00E94591876
S1131F404BE0E42EF12CE80EF91EF0923201E092FF
S1131F5031010E948D0300271127A80197010E94D7
S1131F604A04DF91CF911F910F91FF90EF90089554
S1131F701F920F920FB60F9211242F933F934F93FA
S1131F805F936F937F938F939F93AF93BF93EF93DD
S1131F90FF932FB1E0919501F0919601309739F0BC
S1131FA08091740190917501E80FF91F208380914D
S1131FB07401909175010196909375018093740159
S1131FC080E00E94E50040911E0150911F01809124
S1131FD07401909175018417950718F40E9470019B
S1131FE01CC060919501709196018091430290917B
S1131FF0440210929601109295011092440210929C
S1132000430210921F0110921E011092750110924A
S113201074012FB120E00E94120EFF91EF91BF9145
S1132020AF919F918F917F916F915F914F913F916C
S11320302F910F900FBE0F901F901895AF92BF92E3
S1132040CF92DF92EF92FF920F931F93CF93DF9380
S1132050CDB7DEB7A8970FB6F894DEBF0FBECDBFDD
S1132060873009F4F3C1883098F4833009F4D6C07A
S1132070843038F4813009F47AC0823008F07DC0AD
S113208024C0853009F4ECC0863008F022C1E1C0D8
S11320908B3009F4DFC38C3038F4893009F40DC275
S11320A08A3008F0A4C3F5C18D3039F08D3008F4BE
S11320B029C48E3009F07EC470C480913E02882306
S11320C009F478C411E090E046C40FB7F8941127DE
S11320D081E00E948F0441E0E42EF12CF09217017C
S11320E0E0921601109218011092380110924D01DD
S11320F00FBF0FB7F89411270E947203F0924A01A0
S1132100E09249011092530189B78F7B89BF80E423
S113211088BF8AB780628ABF8AB78F7E8ABF89B731
S1132120806489BF0FBF8FB7F894082F112780915F
S1132130110190911201049719F483E00E94E90AB5
S11321400FBF0FB7F8941127C09A80E00E94FE06D3
S11321500FBF8FB7F894992722E02093D1018FBF46
S113216080E00E94FA0D80E00E94FA0D23C48FB72C
S1132170F89499271092D10171C08FB7F8949927D8
S1132180F09010018FBF63E081E00E94CE008823AD
S113219059F10FB7F89411271092170110921601F4
S11321A087B78F7E87BF87B78F7D87BF83E00E9405
S11321B0FE06C09A0FBF0FB7F894112710924A0178
S11321C0109249010E947203C09A89B78F7B89BF1C
S11321D00FBF1092120110921101DE98DD98DE9A61
S11321E081E00E943D0107C08FB7F894992722E04F
S11321F02093D1018FBF00917101109172010E944F
S1132200FF0180913F0290914002892B09F0D2C3D3
S11322108FEF80930A014F2DB80194C38FB7F894C0
S1132220282F3327122F80914702882309F581E054
S1132230809347028091110190911201049721F437
S113224081E00E94A20503C084E00E943D011FBFFB
S1132250B1C38FB7F8949927109247028FBFAAC3CE
S11322608FB7F894282F332780911301882311F016
S11322702FBFA0C32FBF80B3992736E096958795CB
S11322803A95E1F7182F11709091690180916A01D4
S11322908917D9F01917C9F484E090E090931201DA
S11322A0809311018FB7F894992721E020931301AB
S11322B08FBF60E070E08DE10E9481070E94B10A47
S11322C0C09AC09880E00E943D0110936A0185E0A5
S11322D06DC08FB7F8949927109103018FBF123006
S11322E009F467C0133030F4112359F0113009F0A8
S11322F061C348C0133009F476C0143009F05AC3DE
S1132300A2C0C0988FB7F894082F112780911101AB
S1132310909112010297A1F583E090E0909312014D
S11323208093110168E170E08DE10E94810781E0F2
S1132330809369011092130180B3992726E0969542
S113234087952A95E1F78170907080936A0185E002
S11323500E943D0181E00E94E90A6FE772E08CE18E
S11323600E9481070E94E2070E94A80766E57AE2BC
S113237087E10E9481076FEF70E885E10E94810781
S11323800FBF18C3C09886E00E94E90A0E94E207C2
S11323900E94A8070E94B10AC09AC09883E00E94D4
S11323A0E90AC09A81E00E94FE0684E00E943D0191
S11323B001C3C0988FB7F894082F112760E080E01C
S11323C00E94CE00882311F00FBF0AC00FBF83E51F
S11323D00E94640180E00E94640180E00E94640124
S11323E0C09A82E02DC08FB7F894992720911601E6
S11323F08FBF243039F0283041F0223001F50E949B
S1132400F307D8C20E942C0BD5C2C09889E00E9461
S1132410E90AC09A83E00E94FE068FB7F8949927D0
S113242021E030E030931701209316018FBF8FB75E
S1132430F8949927109310018FBF82E0B7CF83E0FF
S11324400E94FE06B7C20E943B06B4C20FB7F894BE
S1132450112740911E0150911F01609195017091C7
S11324609601809143029091440210929601109239
S11324709501109244021092430210921F0110928F
S11324801E01109275011092740120E00E94120E38
S113249077CF2FB7F89433278091500180930601AA
S11324A082E0809315012FBF80910601882309F0F3
S11324B081C2B89AC09886E079CFA0911C01B091EE
S11324C01D01DC909D012D0D311DF9018081881FB6
S11324D08827881FFD0183A7F90180818F77FD017B
S11324E081A721503040F9018081FD0180A7A0918E
S11324F01C01B0911D01FD0132818FB7F894992719
S113250020914E018FBF222309F490C0832F992775
S113251096958795969587958370907082309105EE
S113252041F5878146812FB7F8943327609167017D
S1132530709168012FBF9927982F88275527842BDE
S1132540952B8617970719F481E090E06CC0FD0184
S11325508781268140E050E09927982F88273327E8
S1132560822B932B8F5F9F4F11F441E050E0CA01FF
S11325705AC0039709F032C19E012F5F3F4F46EDC9
S113258051E088E0FA010190AF01F90101929F0145
S11325908150C1F79E012F5D3F4FAE014F5F5F4FEA
S11325A088E0FA010190AF01F90101929F01815085
S11325B0C1F79E01275F3F4FAE014F5D5F4F88E03B
S11325C0FA010190AF01F90101929F018150C1F715
S11325D09E012F5E3F4FAE01475F5F4F88E0FA01D7
S11325E00190AF01F90101929F018150C1F79E0151
S11325F0275E3F4FAE014F5E5F4F88E0FA010190C6
S1132600AF01F90101929F018150C1F748E050E008
S1132610BE01675E7F4FCD0106960E94D618892BB6
S113262009F0DCC003C0882309F4D8C0FCE0FD1520
S113263008F0D4C0E0901C01F0901D01F701228144
S1132640822F992736E0969587953A95E1F7039777
S113265019F468E070E002C062E070E0822F99270C
S1132660969587959695879583709070039719F43E
S113267088E090E002C082E090E026E030E0E20EE4
S1132680F31E40E050E020E030E0F701E80FF91FCE
S11326908AEF9FEFE80EF91E05C08191480F511D86
S11326A02F5F3F4F26173707C4F3F70163818FEF7E
S11326B0809341028FB7F894782F20E030E0E5E270
S11326C0F1E0808191818417950731F48281861726
S11326D009F47DC0209341022F5F3F4F339624308D
S11326E0310579F77FBF909141023FB7F8949F3F3E
S11326F021F080911901891799F420911901822FF1
S11327009927FC01EE0FFF1FE80FF91FEB5DFE4F49
S11327105183408362832F5F2370209319010CC07F
S1132720892F9927FC01EE0FFF1FE80FF91FEB5DBE
S1132730FE4F518340836283832F99278FBF0FB746
S1132740F8941127C7010E947000FC0190810FBF0B
S1132750F70183A5882309F43DC09F3309F03AC0EB
S1132760878146812FB7F8943327609107017091D0
S113277008012FBF9927982F88275527842B952B3D
S11327808617970759F0878126819927982F8827DC
S11327903327822B932B8F5F9F4FE1F4F7018385BF
S11327A08630C1F4F0E1DF16A1F4F70184858130AD
S11327B081F40E940602AB01BC01E1E0EE2E0AE0C6
S11327C010E020E030E082E00E94530302C07FBFAB
S11327D001C07801F0921D01E0921C018FB7F894BA
S11327E09927109253018FBF0E944C07E3C0809138
S11327F04C01882361F52091E1013091E20140917F
S1132800E3015091E401EFB7F894FF276091CC0104
S11328107091CD018091CE019091CF01E090330170
S1132820F090340100913501109136016E0D7F1D39
S1132830801F911FEFBF2093E1013093E201409389
S1132840E3015093E40110924C010E9439030E9469
S1132850060243C00E9406025B016C018FB7F89424
S11328609927109273018FBF4FEFE42E4FEFF42E90
S11328704FEF042F4FE7142F60E0EAE7F1E0808583
S113288081FF1CC080819181A281B381A601950141
S1132890281B390B4A0B5B0BDA01C90124813581F2
S11328A046815781281B390B4A0B5B0B2E153F05BC
S11328B0400751071CF479018A0161E0399631E03F
S11328C0E539F307E1F6662309F474C01E141F0406
S11328D0100611062CF0C601B5010E94080A6AC050
S11328E0E092E101F092E2010093E3011093E4012C
S11328F081E080934C01A8019701C601B5010E94B3
S1132900390358C090915D0180910A01981709F428
S113291051C090930A019923D1F400911A011091A6
S11329201B0160916F01C8010E943908482F552787
S1132930442309F43FC08FEF80930A0160911A0188
S113294070911B01F80183850E94F90933C08FEF50
S113295080930A012FC020913E02812F8223C1F06F
S1132960E92FFF27EE0FFF1FEA58FE4F40815181E8
S113297011821082812F8095282320933E0299236F
S113298039F463E0CA010E94A209110F91E0E3CF78
S11329909F5F983078F4110FDECF80910D01E82FFE
S11329A0FF27EE0FFF1FEA58FE4F6081718141E05F
S11329B00E94B909A8960FB6F894DEBF0FBECDBF2A
S11329C0DF91CF911F910F91FF90EF90DF90CF9007
S11329D0BF90AF90089580913A028F3FB1F0282FB5
S11329E03327F901E65CFE4F808180933A028F3FE2
S11329F011F4809348028FEF80832F3F31F0822FB0
S1132A000E941E1081E090E0089580E090E0089517
S1132A101F93CF93DF93CDB7DEB7E0970FB6F8944B
S1132A20DEBF0FBECDBF1FB7F8944FE050E06FEF8D
S1132A3070E08AE391E00E94E3188FEF80933A02FA
S1132A408093480281E08EBD88E080BF83E083BF2D
S1132A508CB59DB54AE72CB53DB52817390708F460
S1132A604150442311F0C901F6CF92B782B78917B8
S1132A70E9F32CB53DB592B782B78917E9F38CB564
S1132A809DB5821B930B409655E0969587955A9574
S1132A90E1F790933C0280933B0213BE83B78EBD53
S1132AA08EB580BF12BE1DBC1CBC8FEF86BF86B71F
S1132AB080937C0080B7992787709070892BD1F719
S1132AC0D29AD19AD09ADA9AD99AD89A15BA8FEF1B
S1132AD084BBD498DC981DBC1CBC87B7846087BFBA
S1132AE08EB5887F84608EBD0E94EB148823E1F745
S1132AF080910001909101010196AA27BB27809340
S1132B00590190935A01A0935B01B0935C018FEF3C
S1132B1080935101E5E2F1E08FEF9FEF9183808391
S1132B201282339621E0E133F207C1F70E942D02AD
S1132B306093E00180910001909101010196AA2720
S1132B40BB278093590190935A01A0935B01B093E2
S1132B505C0180B7886080BF8BE083BF86EE81BF55
S1132B6087B7826087BF0E94B60285E092E09093A7
S1132B701D0180931C018E98B89A8C988FEF8093D6
S1132B8062011092D0011092D1011092D2011092E0
S1132B90D301B89AD69AD59A8FB7F89499272091E9
S1132BA00701309108018FBF3093680120936701BA
S1132BB00E94A20429A73AA74BA75CA76DA77EA7EA
S1132BC08FA798ABDE019196FE01B99688E001903B
S1132BD00D928150E1F7DE015196FE01B19688E035
S1132BE001900D928150E1F7DE015996FE01719634
S1132BF088E001900D928150E1F7A6EDB1E0FE016D
S1132C00799688E001900D928150E1F78091090155
S1132C10992790935501809354018FE18093CB01C0
S1132C208AE18093DE010E94A20429A73AA74BA758
S1132C305CA76DA77EA78FA798ABDE019196FE01D6
S1132C40B99688E001900D928150E1F7DE0111966A
S1132C50FE01B19688E001900D928150E1F7DE010A
S1132C601996FE01319688E001900D928150E1F7AA
S1132C70A6EDB1E0FE01399688E001900D928150F5
S1132C80E1F7A6EDB1E0FD0137969C9180818D932B
S1132C909083319781E0E93DF807B9F781E08093AB
S1132CA04E0110924202809356011092D5010E9467
S1132CB0EB148823E1F7812F99278FBF78940E9422
S1132CC0EB0D8FB7F894482F55274BC087B799273A
S1132CD083709070892B19F4E5E0F0E013C080B79D
S1132CE0992787709070892BD1F781B792B7891B88
S1132CF08C3030F082B7853F18F4E3E0F0E002C096
S1132D00E2E0F0E087B7887BC1F480917D008B7F9F
S1132D10A1F46E9912C08AB190919A00892B88719E
S1132D2061F48091740082FD08C0379B03C081E088
S1132D3090E005C085E090E002C080E090E025B717
S1132D408E1708F4E82FFF27E457FF4FE491237E02
S1132D502062E22BE5BF78948895F89485B78F7D3F
S1132D6085BF80913A028F3F09F4B0CF282F3327D3
S1132D70F901E65CFE4F808180933A028F3F11F4A3
S1132D80809348028FEF80832F3F09F49FCF4FBF7A
S1132D90822F0E941E1095CFACE2B0E0E2EDF6E186
S1132DA00C949F18222E332E442E552E662E772EE9
S1132DB0882E992EFE013196A8E01192AA95E9F782
S1132DC029823A824B825C826D827E828F829886CF
S1132DD0FE013996B8E01192BA95E9F7A986BA8648
S1132DE0CB86DC86ED86FE860F87188B89819A81D7
S1132DF0AB81BC8189A79AA7ABA7BCA77C018D0135
S1132E008FEF9FEFA0E0B0E0E822F9220A231B2312
S1132E1089A59AA5ABA5BCA51D0144245524898583
S1132E209A85AB85BC858DA39EA3AFA3B8A75C018F
S1132E306D018FEF9FEFA0E0B0E0A822B922CA2273
S1132E40DB228DA19EA1AFA1B8A53D0188249924C0
S1132E50C801B701A60195010E94801869A37AA34D
S1132E608BA39CA3C801B701A40193010E948018FD
S1132E707B018C01C201B101A60195010E94801859
S1132E805B016C01C201B101A40193010E9480188D
S1132E903B014C01EA0CFB1C0C1D1D1D89A19AA1D0
S1132EA0ABA1BCA19D01442755272E0D3F1D401FFA
S1132EB0511F2A153B054C055D0540F480E090E068
S1132EC0A1E0B0E0680E791E8A1E9B1ECA01AA27E3
S1132ED0BB27860D971DA81DB91D8D8F9E8FAF8FA3
S1132EE0B8A3A9013327222789A19AA1ABA1BCA128
S1132EF0A070B070280F391F4A1F5B1F298F3A8FAB
S1132F004B8F5C8FA98CBA8CCB8CDC8CED8CFE8CBB
S1132F100F8D18A1FE01719698E011929A95E9F728
S1132F20ED8AFE8A0F8B188F2D813E814F81588543
S1132F306DA17EA18FA198A50E9480183B014C0130
S1132F402D853E854F85588969A57AA58BA59CA5B5
S1132F500E9480182D893E894F89588D260F371F6E
S1132F60481F591F260D371D481D591D2D8B3E8B9B
S1132F704F8B588F6D887E888F88988C2A2D3B2D97
S1132F804C2D5D2D662D772D882D992DE2E1AC9683
S1132F900C94BB18A0E1B0E0E0EDF7E10C949F18AD
S1132FA0222E332E442E552E662E772E882E992EC1
S1132FB0002309F466C088E0FE01319611928A95D7
S1132FC0E9F729833A834B835C836D837E838F8205
S1132FD09887E0E2E01B1E16CCF52D813E814F81DF
S1132FE05885602F772767FD7095DA01C901062E91
S1132FF004C0B695A795979587950A94D2F78D87BF
S11330009E87AF87B88B04C0220F331F441F551F00
S1133010EA95D2F789819A81AB81BC8104C0B695C7
S1133020A795979587956A95D2F7282B392B4A2B24
S11330305B2B29873A874B875C8729843A844B84A6
S11330405C846D847E848F8498881BC01D861E8654
S11330501F86188A2E2F332727FD3095309521950A
S11330603F4F8D819E81AF81B88504C0B695A795E9
S1133070979587952A95D2F789879A87AB87BC87D6
S1133080DCCF222D332D442D552D662D772D882D03
S1133090992DE2E160960C94BB18991B79E004C069
S11330A0991F961708F0961B881F7A95C9F7809583
S11330B00895AA1BBB1B51E107C0AA1FBB1FA6177B
S11330C0B70710F0A61BB70B881F991F5A95A9F7CD
S11330D080959095BC01CD01089597FB092E072694
S11330E00AD077FD04D0E5DF06D000201AF47095ED
S11330F061957F4F0895F6F7909581959F4F0895B8
S1133100629FD001739FF001829FE00DF11D649FC7
S1133110E00DF11D929FF00D839FF00D749FF00D53
S1133120659FF00D9927729FB00DE11DF91F639FF4
S1133130B00DE11DF91FBD01CF01112408952F9297
S11331403F924F925F926F927F928F929F92AF9233
S1133150BF92CF92DF92EF92FF920F931F93CF9380
S1133160DF93CDB7DEB7CA1BDB0B0FB6F894DEBF17
S11331700FBECDBF09942A88398848885F846E843D
S11331807D848C849B84AA84B984C884DF80EE8087
S1133190FD800C811B81AA81B981CE0FD11D0FB690
S11331A0F894DEBF0FBECDBFED010895FB01DC0135
S11331B004C08D910190801921F441505040C8F70A
S11331C0881B990B0895DC0101C06D934150504058
S10931D0E0F70895FFCFB3
S11131D6010053FFFFFFFF010022FFFFFF0176
S9030000FC
